:030000000208ED06
:0C08ED00787FE4F6D8FD75810D0208004C
:10080000A2AF9200C2AF75C7AA75C755E4F591A211
:100810000092AF53B3FB43B404C292E4F50BF50A64
:10082000F509F508E47F0AFEFDFCAB0BAA0AA9094D
:08083000A808C31208D75040CC
:10083800E4F50DC3E50D941A748094805017E4F51F
:100848000CC3E50C94FF74809480500500050C805F
:05085800F0050D80DE3B
:10085D00E4FAF9F8E50B2401F50BEA350AF50AE996
:10086D003509F509E83508F50880ACD292E4F50BA9
:10087D00F50AF509F508E47F0AFEFDFCAB0BAA0AA3
:0A088D00A909A808C31208D7508279
:10089700E4F50DC3E50D941A748094805017E4F5C0
:1008A7000CC3E50C94FF74809480500500050C8000
:0508B700F0050D80DEDC
:1008BC00E4FAF9F8E50B2401F50BEA350AF50AE937
:0B08CC003509F509E83508F50880AC97
:1008D700EB9FF5F0EA9E42F0E99D42F0EC6480C898
:0608E70064809845F02238
:00000001FF
